:060000000A128A11CC2F48
:100F080081344234243418341834183418341834DA
:100F18007E088A007F0882000A128A118C270A122A
:100F28008A118000840A04087D0603190034FF0A28
:100F38000319FE0A902F8316031386018801831272
:100F4800031388018601F90108307902031CAD2FCB
:100F5800AE2FAF2FA72F0130F800790AB52F031055
:100F6800F80DFF3E031DB32F780883120313860084
:100F78007908703E8400000988006330F800F80B97
:100F8800C32FC62F0130F907A82F0A128A1100288B
:100F98000A128A1184270A128A11F0000A128A1189
:100FA80085270A128A11F1000A128A1186270A1265
:100FB8008A11F2000A128A1187270A128A11F3008D
:100FC8000A128A1188270A128A11F4000A128A1151
:100FD80089270A128A11F5000A128A118A270A1229
:100FE8008A11F6000A128A118B270A128A11F70051
:080FF80083010A128A119F2FE8
:04400E00F12FFF3F50
:00000001FF
