:060000000A128A11CC2F48
:100F00008134423424341834183424344234813443
:100F10007E088A007F0882000A128A1188270A1236
:100F20008A118000840A04087D0603190034FF0A30
:100F30000319FE0A8C2F831603138601880183127E
:100F4000031386018801FA0108307A02031CA92FD5
:100F5000AA2FAB2FA32F0130F8007A0AB12F03106C
:100F6000F80DFF3E031DAF2F780883120313860090
:100F70007A08703E8400000988001430F900793046
:100F8000F800F80BC12FF90BC12FC62F0130FA075B
:100F9000A42F0A128A1100280A128A1180270A1225
:100FA0008A11F0000A128A1181270A128A11F100AF
:100FB0000A128A1182270A128A11F2000A128A1171
:100FC00083270A128A11F3000A128A1184270A124F
:100FD0008A11F4000A128A1185270A128A11F50073
:100FE0000A128A1186270A128A11F6000A128A1139
:100FF00087270A128A11F70083010A128A119B2F90
:04400E00F12FFF3F50
:00000001FF
